{
  "contractName": "daoContract",
  "abi": [
    {
      "inputs": [],
      "stateMutability": "nonpayable",
      "type": "constructor"
    },
    {
      "inputs": [],
      "name": "chairperson",
      "outputs": [
        {
          "internalType": "address",
          "name": "",
          "type": "address"
        }
      ],
      "stateMutability": "view",
      "type": "function",
      "constant": true
    },
    {
      "inputs": [
        {
          "internalType": "uint256",
          "name": "",
          "type": "uint256"
        }
      ],
      "name": "voters",
      "outputs": [
        {
          "internalType": "uint256",
          "name": "id",
          "type": "uint256"
        },
        {
          "internalType": "address",
          "name": "voterAddress",
          "type": "address"
        }
      ],
      "stateMutability": "view",
      "type": "function",
      "constant": true
    },
    {
      "inputs": [
        {
          "internalType": "string",
          "name": "_name",
          "type": "string"
        },
        {
          "internalType": "string",
          "name": "_description",
          "type": "string"
        }
      ],
      "name": "createProposal",
      "outputs": [],
      "stateMutability": "nonpayable",
      "type": "function"
    },
    {
      "inputs": [
        {
          "internalType": "uint256",
          "name": "_id",
          "type": "uint256"
        }
      ],
      "name": "aproveProposal",
      "outputs": [],
      "stateMutability": "nonpayable",
      "type": "function"
    },
    {
      "inputs": [],
      "name": "getAllProposals",
      "outputs": [
        {
          "components": [
            {
              "internalType": "uint256",
              "name": "id",
              "type": "uint256"
            },
            {
              "internalType": "string",
              "name": "name",
              "type": "string"
            },
            {
              "internalType": "string",
              "name": "description",
              "type": "string"
            },
            {
              "internalType": "bool",
              "name": "isAccepted",
              "type": "bool"
            },
            {
              "internalType": "address",
              "name": "applicant",
              "type": "address"
            },
            {
              "internalType": "address[]",
              "name": "allVoters",
              "type": "address[]"
            },
            {
              "internalType": "uint256",
              "name": "fors",
              "type": "uint256"
            },
            {
              "internalType": "uint256",
              "name": "against",
              "type": "uint256"
            },
            {
              "internalType": "uint256",
              "name": "notClear",
              "type": "uint256"
            }
          ],
          "internalType": "struct daoContract.Proposal[]",
          "name": "",
          "type": "tuple[]"
        }
      ],
      "stateMutability": "view",
      "type": "function",
      "constant": true
    },
    {
      "inputs": [
        {
          "internalType": "uint256",
          "name": "id",
          "type": "uint256"
        }
      ],
      "name": "alreadyVoted",
      "outputs": [
        {
          "internalType": "bool",
          "name": "",
          "type": "bool"
        }
      ],
      "stateMutability": "view",
      "type": "function",
      "constant": true
    },
    {
      "inputs": [
        {
          "internalType": "uint256",
          "name": "id",
          "type": "uint256"
        }
      ],
      "name": "voteFors",
      "outputs": [],
      "stateMutability": "nonpayable",
      "type": "function"
    },
    {
      "inputs": [
        {
          "internalType": "uint256",
          "name": "id",
          "type": "uint256"
        }
      ],
      "name": "voteAgainst",
      "outputs": [],
      "stateMutability": "nonpayable",
      "type": "function"
    },
    {
      "inputs": [
        {
          "internalType": "uint256",
          "name": "id",
          "type": "uint256"
        }
      ],
      "name": "voteNotClear",
      "outputs": [],
      "stateMutability": "nonpayable",
      "type": "function"
    },
    {
      "inputs": [
        {
          "internalType": "uint256",
          "name": "id",
          "type": "uint256"
        }
      ],
      "name": "getIsAccepted",
      "outputs": [
        {
          "internalType": "bool",
          "name": "",
          "type": "bool"
        }
      ],
      "stateMutability": "view",
      "type": "function",
      "constant": true
    },
    {
      "inputs": [
        {
          "internalType": "uint256",
          "name": "id",
          "type": "uint256"
        }
      ],
      "name": "getFors",
      "outputs": [
        {
          "internalType": "uint256",
          "name": "",
          "type": "uint256"
        }
      ],
      "stateMutability": "view",
      "type": "function",
      "constant": true
    },
    {
      "inputs": [
        {
          "internalType": "uint256",
          "name": "id",
          "type": "uint256"
        }
      ],
      "name": "getAgainst",
      "outputs": [
        {
          "internalType": "uint256",
          "name": "",
          "type": "uint256"
        }
      ],
      "stateMutability": "view",
      "type": "function",
      "constant": true
    },
    {
      "inputs": [
        {
          "internalType": "uint256",
          "name": "id",
          "type": "uint256"
        }
      ],
      "name": "getNotClear",
      "outputs": [
        {
          "internalType": "uint256",
          "name": "",
          "type": "uint256"
        }
      ],
      "stateMutability": "view",
      "type": "function",
      "constant": true
    },
    {
      "inputs": [],
      "name": "isRegistered",
      "outputs": [
        {
          "internalType": "bool",
          "name": "",
          "type": "bool"
        }
      ],
      "stateMutability": "view",
      "type": "function",
      "constant": true
    },
    {
      "inputs": [],
      "name": "createVoter",
      "outputs": [],
      "stateMutability": "nonpayable",
      "type": "function"
    }
  ],
  "bytecode": "0x608060405234801561001057600080fd5b50336000806101000a81548173ffffffffffffffffffffffffffffffffffffffff021916908373ffffffffffffffffffffffffffffffffffffffff160217905550611f9e806100606000396000f3fe608060405234801561001057600080fd5b50600436106100f55760003560e01c8063850eda8211610097578063c44298f711610066578063c44298f71461025c578063cceb68f51461028c578063d3649d40146102aa578063da58c7d9146102da576100f5565b8063850eda82146101c4578063b1e7a1f0146101e0578063b4a00edd14610210578063bb2cfe8014610240576100f5565b8063545d74c7116100d3578063545d74c71461016657806360fccde81461018257806365e481e21461018c578063750e443a146101a8576100f5565b80631392c5bd146100fa578063223668441461012a5780632e4176cf14610148575b600080fd5b610114600480360381019061010f91906113d5565b61030b565b6040516101219190611411565b60405180910390f35b61013261033a565b60405161013f9190611447565b60405180910390f35b6101506103ed565b60405161015d91906114a3565b60405180910390f35b610180600480360381019061017b91906113d5565b610411565b005b61018a6105eb565b005b6101a660048036038101906101a19190611604565b6106ef565b005b6101c260048036038101906101bd91906113d5565b610869565b005b6101de60048036038101906101d991906113d5565b610a43565b005b6101fa60048036038101906101f591906113d5565b610c1d565b6040516102079190611447565b60405180910390f35b61022a600480360381019061022591906113d5565b610d11565b6040516102379190611447565b60405180910390f35b61025a600480360381019061025591906113d5565b610d4d565b005b610276600480360381019061027191906113d5565b610e9d565b6040516102839190611411565b60405180910390f35b610294610ecc565b6040516102a1919061196c565b60405180910390f35b6102c460048036038101906102bf91906113d5565b6111fd565b6040516102d19190611411565b60405180910390f35b6102f460048036038101906102ef91906113d5565b61122c565b60405161030292919061198e565b60405180910390f35b600060018281548110610321576103206119b7565b5b9060005260206000209060080201600701549050919050565b6000806000905060005b6002805490508110156103e5573373ffffffffffffffffffffffffffffffffffffffff166002828154811061037c5761037b6119b7565b5b906000526020600020906002020160010160009054906101000a900473ffffffffffffffffffffffffffffffffffffffff1673ffffffffffffffffffffffffffffffffffffffff16036103d257600191506103e5565b80806103dd90611a15565b915050610344565b508091505090565b60008054906101000a900473ffffffffffffffffffffffffffffffffffffffff1681565b6001151561041d61033a565b15151461045f576040517f08c379a000000000000000000000000000000000000000000000000000000000815260040161045690611aba565b60405180910390fd5b6000151561046c82610c1d565b1515146104ae576040517f08c379a00000000000000000000000000000000000000000000000000000000081526004016104a590611b26565b60405180910390fd5b60011515600182815481106104c6576104c56119b7565b5b906000526020600020906008020160030160009054906101000a900460ff16151514610527576040517f08c379a000000000000000000000000000000000000000000000000000000000815260040161051e90611b92565b60405180910390fd5b6001818154811061053b5761053a6119b7565b5b9060005260206000209060080201600701600081548092919061055d90611a15565b919050555060018181548110610576576105756119b7565b5b9060005260206000209060080201600401339080600181540180825580915050600190039060005260206000200160009091909190916101000a81548173ffffffffffffffffffffffffffffffffffffffff021916908373ffffffffffffffffffffffffffffffffffffffff16021790555050565b600015156105f761033a565b151514610639576040517f08c379a000000000000000000000000000000000000000000000000000000000815260040161063090611bfe565b60405180910390fd5b60006002805490509050600260405180604001604052808381526020013373ffffffffffffffffffffffffffffffffffffffff1681525090806001815401808255809150506001900390600052602060002090600202016000909190919091506000820151816000015560208201518160010160006101000a81548173ffffffffffffffffffffffffffffffffffffffff021916908373ffffffffffffffffffffffffffffffffffffffff160217905550505050565b60006001805490509050600080600080606060016040518061012001604052808881526020018a815260200189815260200187151581526020013373ffffffffffffffffffffffffffffffffffffffff1681526020018381526020018681526020018581526020018481525090806001815401808255809150506001900390600052602060002090600802016000909190919091506000820151816000015560208201518160010190816107a39190611e2a565b5060408201518160020190816107b99190611e2a565b5060608201518160030160006101000a81548160ff02191690831515021790555060808201518160030160016101000a81548173ffffffffffffffffffffffffffffffffffffffff021916908373ffffffffffffffffffffffffffffffffffffffff16021790555060a082015181600401908051906020019061083d929190611280565b5060c0820151816005015560e08201518160060155610100820151816007015550505050505050505050565b6001151561087561033a565b1515146108b7576040517f08c379a00000000000000000000000000000000000000000000000000000000081526004016108ae90611aba565b60405180910390fd5b600015156108c482610c1d565b151514610906576040517f08c379a00000000000000000000000000000000000000000000000000000000081526004016108fd90611b26565b60405180910390fd5b600115156001828154811061091e5761091d6119b7565b5b906000526020600020906008020160030160009054906101000a900460ff1615151461097f576040517f08c379a000000000000000000000000000000000000000000000000000000000815260040161097690611b92565b60405180910390fd5b60018181548110610993576109926119b7565b5b906000526020600020906008020160060160008154809291906109b590611a15565b9190505550600181815481106109ce576109cd6119b7565b5b9060005260206000209060080201600401339080600181540180825580915050600190039060005260206000200160009091909190916101000a81548173ffffffffffffffffffffffffffffffffffffffff021916908373ffffffffffffffffffffffffffffffffffffffff16021790555050565b60011515610a4f61033a565b151514610a91576040517f08c379a0000000000000000000000000000000000000000000000000000000008152600401610a8890611aba565b60405180910390fd5b60001515610a9e82610c1d565b151514610ae0576040517f08c379a0000000000000000000000000000000000000000000000000000000008152600401610ad790611b26565b60405180910390fd5b6001151560018281548110610af857610af76119b7565b5b906000526020600020906008020160030160009054906101000a900460ff16151514610b59576040517f08c379a0000000000000000000000000000000000000000000000000000000008152600401610b5090611b92565b60405180910390fd5b60018181548110610b6d57610b6c6119b7565b5b90600052602060002090600802016005016000815480929190610b8f90611a15565b919050555060018181548110610ba857610ba76119b7565b5b9060005260206000209060080201600401339080600181540180825580915050600190039060005260206000200160009091909190916101000a81548173ffffffffffffffffffffffffffffffffffffffff021916908373ffffffffffffffffffffffffffffffffffffffff16021790555050565b6000806000905060005b60018481548110610c3b57610c3a6119b7565b5b906000526020600020906008020160040180549050811015610d07573373ffffffffffffffffffffffffffffffffffffffff1660018581548110610c8257610c816119b7565b5b90600052602060002090600802016004018281548110610ca557610ca46119b7565b5b9060005260206000200160009054906101000a900473ffffffffffffffffffffffffffffffffffffffff1673ffffffffffffffffffffffffffffffffffffffff1603610cf45760019150610d07565b8080610cff90611a15565b915050610c27565b5080915050919050565b600060018281548110610d2757610d266119b7565b5b906000526020600020906008020160030160009054906101000a900460ff169050919050565b60008054906101000a900473ffffffffffffffffffffffffffffffffffffffff1673ffffffffffffffffffffffffffffffffffffffff163373ffffffffffffffffffffffffffffffffffffffff1614610ddb576040517f08c379a0000000000000000000000000000000000000000000000000000000008152600401610dd290611f48565b60405180910390fd5b6001151560018281548110610df357610df26119b7565b5b906000526020600020906008020160030160009054906101000a900460ff16151503610e5c57600060018281548110610e2f57610e2e6119b7565b5b906000526020600020906008020160030160006101000a81548160ff021916908315150217905550610e9a565b6001808281548110610e7157610e706119b7565b5b906000526020600020906008020160030160006101000a81548160ff0219169083151502179055505b50565b600060018281548110610eb357610eb26119b7565b5b9060005260206000209060080201600501549050919050565b6060600060018054905067ffffffffffffffff811115610eef57610eee6114d9565b5b604051908082528060200260200182016040528015610f2857816020015b610f1561130a565b815260200190600190039081610f0d5790505b5090506000805b6001805490508110156111f45760018181548110610f5057610f4f6119b7565b5b90600052602060002090600802016040518061012001604052908160008201548152602001600182018054610f8490611c4d565b80601f0160208091040260200160405190810160405280929190818152602001828054610fb090611c4d565b8015610ffd5780601f10610fd257610100808354040283529160200191610ffd565b820191906000526020600020905b815481529060010190602001808311610fe057829003601f168201915b5050505050815260200160028201805461101690611c4d565b80601f016020809104026020016040519081016040528092919081815260200182805461104290611c4d565b801561108f5780601f106110645761010080835404028352916020019161108f565b820191906000526020600020905b81548152906001019060200180831161107257829003601f168201915b505050505081526020016003820160009054906101000a900460ff161515151581526020016003820160019054906101000a900473ffffffffffffffffffffffffffffffffffffffff1673ffffffffffffffffffffffffffffffffffffffff1673ffffffffffffffffffffffffffffffffffffffff1681526020016004820180548060200260200160405190810160405280929190818152602001828054801561118e57602002820191906000526020600020905b8160009054906101000a900473ffffffffffffffffffffffffffffffffffffffff1673ffffffffffffffffffffffffffffffffffffffff1681526020019060010190808311611144575b5050505050815260200160058201548152602001600682015481526020016007820154815250508383815181106111c8576111c76119b7565b5b602002602001018190525081806111de90611a15565b92505080806111ec90611a15565b915050610f2f565b50819250505090565b600060018281548110611213576112126119b7565b5b9060005260206000209060080201600601549050919050565b6002818154811061123c57600080fd5b90600052602060002090600202016000915090508060000154908060010160009054906101000a900473ffffffffffffffffffffffffffffffffffffffff16905082565b8280548282559060005260206000209081019282156112f9579160200282015b828111156112f85782518260006101000a81548173ffffffffffffffffffffffffffffffffffffffff021916908373ffffffffffffffffffffffffffffffffffffffff160217905550916020019190600101906112a0565b5b509050611306919061136e565b5090565b604051806101200160405280600081526020016060815260200160608152602001600015158152602001600073ffffffffffffffffffffffffffffffffffffffff168152602001606081526020016000815260200160008152602001600081525090565b5b8082111561138757600081600090555060010161136f565b5090565b6000604051905090565b600080fd5b600080fd5b6000819050919050565b6113b28161139f565b81146113bd57600080fd5b50565b6000813590506113cf816113a9565b92915050565b6000602082840312156113eb576113ea611395565b5b60006113f9848285016113c0565b91505092915050565b61140b8161139f565b82525050565b60006020820190506114266000830184611402565b92915050565b60008115159050919050565b6114418161142c565b82525050565b600060208201905061145c6000830184611438565b92915050565b600073ffffffffffffffffffffffffffffffffffffffff82169050919050565b600061148d82611462565b9050919050565b61149d81611482565b82525050565b60006020820190506114b86000830184611494565b92915050565b600080fd5b600080fd5b6000601f19601f8301169050919050565b7f4e487b7100000000000000000000000000000000000000000000000000000000600052604160045260246000fd5b611511826114c8565b810181811067ffffffffffffffff821117156115305761152f6114d9565b5b80604052505050565b600061154361138b565b905061154f8282611508565b919050565b600067ffffffffffffffff82111561156f5761156e6114d9565b5b611578826114c8565b9050602081019050919050565b82818337600083830152505050565b60006115a76115a284611554565b611539565b9050828152602081018484840111156115c3576115c26114c3565b5b6115ce848285611585565b509392505050565b600082601f8301126115eb576115ea6114be565b5b81356115fb848260208601611594565b91505092915050565b6000806040838503121561161b5761161a611395565b5b600083013567ffffffffffffffff8111156116395761163861139a565b5b611645858286016115d6565b925050602083013567ffffffffffffffff8111156116665761166561139a565b5b611672858286016115d6565b9150509250929050565b600081519050919050565b600082825260208201905092915050565b6000819050602082019050919050565b6116b18161139f565b82525050565b600081519050919050565b600082825260208201905092915050565b60005b838110156116f15780820151818401526020810190506116d6565b60008484015250505050565b6000611708826116b7565b61171281856116c2565b93506117228185602086016116d3565b61172b816114c8565b840191505092915050565b61173f8161142c565b82525050565b61174e81611482565b82525050565b600081519050919050565b600082825260208201905092915050565b6000819050602082019050919050565b600061178c8383611745565b60208301905092915050565b6000602082019050919050565b60006117b082611754565b6117ba818561175f565b93506117c583611770565b8060005b838110156117f65781516117dd8882611780565b97506117e883611798565b9250506001810190506117c9565b5085935050505092915050565b60006101208301600083015161181c60008601826116a8565b506020830151848203602086015261183482826116fd565b9150506040830151848203604086015261184e82826116fd565b91505060608301516118636060860182611736565b5060808301516118766080860182611745565b5060a083015184820360a086015261188e82826117a5565b91505060c08301516118a360c08601826116a8565b5060e08301516118b660e08601826116a8565b506101008301516118cb6101008601826116a8565b508091505092915050565b60006118e28383611803565b905092915050565b6000602082019050919050565b60006119028261167c565b61190c8185611687565b93508360208202850161191e85611698565b8060005b8581101561195a578484038952815161193b85826118d6565b9450611946836118ea565b925060208a01995050600181019050611922565b50829750879550505050505092915050565b6000602082019050818103600083015261198681846118f7565b905092915050565b60006040820190506119a36000830185611402565b6119b06020830184611494565b9392505050565b7f4e487b7100000000000000000000000000000000000000000000000000000000600052603260045260246000fd5b7f4e487b7100000000000000000000000000000000000000000000000000000000600052601160045260246000fd5b6000611a208261139f565b91507fffffffffffffffffffffffffffffffffffffffffffffffffffffffffffffffff8203611a5257611a516119e6565b5b600182019050919050565b600082825260208201905092915050565b7f596f7520617265206e6f74207265676973746572656400000000000000000000600082015250565b6000611aa4601683611a5d565b9150611aaf82611a6e565b602082019050919050565b60006020820190508181036000830152611ad381611a97565b9050919050565b7f596f75206861766520616c726561647920566f74656400000000000000000000600082015250565b6000611b10601683611a5d565b9150611b1b82611ada565b602082019050919050565b60006020820190508181036000830152611b3f81611b03565b9050919050565b7f596f752063616e6e6f7420766f7465206e6f7700000000000000000000000000600082015250565b6000611b7c601383611a5d565b9150611b8782611b46565b602082019050919050565b60006020820190508181036000830152611bab81611b6f565b9050919050565b7f596f752061726520616c72656164792072656769737465726564000000000000600082015250565b6000611be8601a83611a5d565b9150611bf382611bb2565b602082019050919050565b60006020820190508181036000830152611c1781611bdb565b9050919050565b7f4e487b7100000000000000000000000000000000000000000000000000000000600052602260045260246000fd5b60006002820490506001821680611c6557607f821691505b602082108103611c7857611c77611c1e565b5b50919050565b60008190508160005260206000209050919050565b60006020601f8301049050919050565b600082821b905092915050565b600060088302611ce07fffffffffffffffffffffffffffffffffffffffffffffffffffffffffffffffff82611ca3565b611cea8683611ca3565b95508019841693508086168417925050509392505050565b6000819050919050565b6000611d27611d22611d1d8461139f565b611d02565b61139f565b9050919050565b6000819050919050565b611d4183611d0c565b611d55611d4d82611d2e565b848454611cb0565b825550505050565b600090565b611d6a611d5d565b611d75818484611d38565b505050565b5b81811015611d9957611d8e600082611d62565b600181019050611d7b565b5050565b601f821115611dde57611daf81611c7e565b611db884611c93565b81016020851015611dc7578190505b611ddb611dd385611c93565b830182611d7a565b50505b505050565b600082821c905092915050565b6000611e0160001984600802611de3565b1980831691505092915050565b6000611e1a8383611df0565b9150826002028217905092915050565b611e33826116b7565b67ffffffffffffffff811115611e4c57611e4b6114d9565b5b611e568254611c4d565b611e61828285611d9d565b600060209050601f831160018114611e945760008415611e82578287015190505b611e8c8582611e0e565b865550611ef4565b601f198416611ea286611c7e565b60005b82811015611eca57848901518255600182019150602085019450602081019050611ea5565b86831015611ee75784890151611ee3601f891682611df0565b8355505b6001600288020188555050505b505050505050565b7f596f7520617265206e6f7420746865204368616972706572736f6e0000000000600082015250565b6000611f32601b83611a5d565b9150611f3d82611efc565b602082019050919050565b60006020820190508181036000830152611f6181611f25565b905091905056fea26469706673582212209a0a4806218a23713dd868c2b5d4e0df86fbc88469f5a5c3304f40670721c9c164736f6c63430008110033",
  "immutableReferences": {},
  "source": "// SPDX-License-Identifier: MIT\n\npragma solidity >=0.4.0 <0.9.0;\n\ncontract daoContract{\n\n    //proposal\n\n    struct Proposal{\n        uint256 id;\n        string name;\n        string description;\n        bool isAccepted;\n        address applicant;\n        address[] allVoters;\n\n        uint fors;\n        uint against;\n        uint notClear;\n    }\n\n    address public chairperson;\n    Proposal[] proposals;\n\n\n\n    \n\n    function createProposal(string memory _name,string memory _description) external{\n\n        uint _id = proposals.length;\n        bool _isAccepted = false;\n        uint fors = 0;\n        uint against = 0;\n        uint notClear = 0;\n        address[] memory voters_all;\n\n        proposals.push(Proposal(_id,_name,_description,_isAccepted,msg.sender,voters_all,fors,against,notClear));\n\n\n\n    }\n\n\n    constructor(){\n        chairperson = msg.sender;\n    }\n\n    \n\n    function aproveProposal(uint _id) external {\n        require(msg.sender == chairperson,\"You are not the Chairperson\");\n        \n        if(proposals[_id].isAccepted == true){\n            proposals[_id].isAccepted = false;\n        }else{\n            proposals[_id].isAccepted = true;\n        }\n    }\n\n\n\n    function getAllProposals() external view returns(Proposal[] memory){\n        Proposal[] memory result = new Proposal[](proposals.length);\n        uint count = 0;\n\n        for(uint i = 0; i<proposals.length;i++){\n            result[count]=proposals[i];\n            count++;\n        }\n\n        return result;\n    }\n\n\n    function alreadyVoted(uint id) public view returns(bool){\n        bool found = false;\n\n        for (uint i = 0; i < proposals[id].allVoters.length;i++){\n            if(proposals[id].allVoters[i] == msg.sender){\n                found = true;\n                break;\n            }else{\n                continue;\n            }\n        }\n\n        return found;\n    }\n\n\n    function voteFors(uint id) external{\n        require(isRegistered() == true,\"You are not registered\");\n        require(alreadyVoted(id) == false,\"You have already Voted\");\n        require(proposals[id].isAccepted == true,\"You cannot vote now\");\n\n\n\n        proposals[id].fors++;\n        proposals[id].allVoters.push(msg.sender);\n\n    }\n\n    function voteAgainst(uint id) external{\n        require(isRegistered() == true,\"You are not registered\");\n        require(alreadyVoted(id) == false,\"You have already Voted\");\n        require(proposals[id].isAccepted == true,\"You cannot vote now\");\n\n\n\n\n        proposals[id].against++;\n        proposals[id].allVoters.push(msg.sender);\n\n    }\n\n    function voteNotClear(uint id) external{\n        require(isRegistered() == true,\"You are not registered\");\n        require(alreadyVoted(id) == false,\"You have already Voted\");\n        require(proposals[id].isAccepted == true,\"You cannot vote now\");\n\n\n\n\n        proposals[id].notClear++;\n        proposals[id].allVoters.push(msg.sender);\n\n    }\n\n\n    function getIsAccepted(uint id) public view returns(bool){\n        return proposals[id].isAccepted;\n    }\n\n    function getFors(uint id) public view returns(uint){\n        return proposals[id].fors;\n    }\n\n    function getAgainst(uint id) public view returns(uint){\n        return proposals[id].against;\n    }\n\n    function getNotClear(uint id) public view returns(uint){\n        return proposals[id].notClear;\n    }\n\n    \n\n\n\n\n    struct Voter{\n        uint id;\n        address voterAddress;\n    }\n\n    Voter[] public voters;\n\n    function isRegistered() public view returns(bool){\n        bool found = false;\n        for (uint i = 0; i < voters.length; i++){\n            if(voters[i].voterAddress == msg.sender){\n                found = true;\n                break;\n            }else{\n                continue;\n            }\n        }\n        return found;\n    }\n\n    function createVoter() external{\n        require(isRegistered() == false,\"You are already registered\");\n\n        uint id = voters.length;\n        voters.push(Voter(id,msg.sender));\n\n        \n    }\n\n\n}\n",
  "sourcePath": "F:\\dao-final\\truffle\\contracts\\daoContract.sol",
  "compiler": {
    "name": "solc",
    "version": "0.8.17+commit.8df45f5f.Emscripten.clang"
  },
  "schemaVersion": "3.4.10",
  "updatedAt": "2022-11-23T06:48:58.023Z",
  "networkType": "ethereum",
  "devdoc": {
    "kind": "dev",
    "methods": {},
    "version": 1
  },
  "userdoc": {
    "kind": "user",
    "methods": {},
    "version": 1
  }
}